{
  "contractName": "Voting",
  "abi": [
    {
      "inputs": [
        {
          "internalType": "string[]",
          "name": "_candidateNames",
          "type": "string[]"
        },
        {
          "internalType": "address",
          "name": "_votingPermissionsAddress",
          "type": "address"
        }
      ],
      "stateMutability": "nonpayable",
      "type": "constructor"
    },
    {
      "anonymous": false,
      "inputs": [
        {
          "indexed": false,
          "internalType": "string",
          "name": "_name",
          "type": "string"
        }
      ],
      "name": "CandidateAdded",
      "type": "event"
    },
    {
      "anonymous": false,
      "inputs": [
        {
          "indexed": true,
          "internalType": "address",
          "name": "_voter",
          "type": "address"
        },
        {
          "indexed": false,
          "internalType": "uint256",
          "name": "_candidateIndex",
          "type": "uint256"
        }
      ],
      "name": "Voted",
      "type": "event"
    },
    {
      "inputs": [
        {
          "internalType": "uint256",
          "name": "",
          "type": "uint256"
        }
      ],
      "name": "candidates",
      "outputs": [
        {
          "internalType": "string",
          "name": "name",
          "type": "string"
        },
        {
          "internalType": "uint256",
          "name": "voteCount",
          "type": "uint256"
        }
      ],
      "stateMutability": "view",
      "type": "function",
      "constant": true
    },
    {
      "inputs": [
        {
          "internalType": "address",
          "name": "",
          "type": "address"
        }
      ],
      "name": "hasVoted",
      "outputs": [
        {
          "internalType": "bool",
          "name": "",
          "type": "bool"
        }
      ],
      "stateMutability": "view",
      "type": "function",
      "constant": true
    },
    {
      "inputs": [],
      "name": "owner",
      "outputs": [
        {
          "internalType": "address",
          "name": "",
          "type": "address"
        }
      ],
      "stateMutability": "view",
      "type": "function",
      "constant": true
    },
    {
      "inputs": [],
      "name": "votingPermissionsAddress",
      "outputs": [
        {
          "internalType": "address",
          "name": "",
          "type": "address"
        }
      ],
      "stateMutability": "view",
      "type": "function",
      "constant": true
    },
    {
      "inputs": [],
      "name": "getOwner",
      "outputs": [
        {
          "internalType": "address",
          "name": "",
          "type": "address"
        }
      ],
      "stateMutability": "view",
      "type": "function",
      "constant": true
    },
    {
      "inputs": [
        {
          "internalType": "uint256",
          "name": "_candidateIndex",
          "type": "uint256"
        }
      ],
      "name": "vote",
      "outputs": [],
      "stateMutability": "nonpayable",
      "type": "function"
    },
    {
      "inputs": [
        {
          "internalType": "uint256",
          "name": "_candidateIndex",
          "type": "uint256"
        }
      ],
      "name": "totalVotesFor",
      "outputs": [
        {
          "internalType": "uint256",
          "name": "",
          "type": "uint256"
        }
      ],
      "stateMutability": "view",
      "type": "function",
      "constant": true
    },
    {
      "inputs": [],
      "name": "getCandidateCount",
      "outputs": [
        {
          "internalType": "uint256",
          "name": "",
          "type": "uint256"
        }
      ],
      "stateMutability": "view",
      "type": "function",
      "constant": true
    }
  ],
  "bytecode": "0x60806040523480156200001157600080fd5b506040516200132a3803806200132a833981810160405281019062000037919062000572565b33600360006101000a81548173ffffffffffffffffffffffffffffffffffffffff021916908373ffffffffffffffffffffffffffffffffffffffff16021790555060005b82518110156200017a5760006040518060400160405280858481518110620000a857620000a7620005d8565b5b6020026020010151815260200160008152509080600181540180825580915050600190039060005260206000209060020201600090919091909150600082015181600001908051906020019062000101929190620001c4565b506020820151816001015550507ff29562dad1599aea0ebb142466120aab326d5efa8f839df82a9c064bf78e8938838281518110620001455762000144620005d8565b5b60200260200101516040516200015c919062000664565b60405180910390a180806200017190620006c1565b9150506200007b565b5080600160006101000a81548173ffffffffffffffffffffffffffffffffffffffff021916908373ffffffffffffffffffffffffffffffffffffffff160217905550505062000772565b828054620001d2906200073d565b90600052602060002090601f016020900481019282620001f6576000855562000242565b82601f106200021157805160ff191683800117855562000242565b8280016001018555821562000242579182015b828111156200024157825182559160200191906001019062000224565b5b50905062000251919062000255565b5090565b5b808211156200027057600081600090555060010162000256565b5090565b6000604051905090565b600080fd5b600080fd5b600080fd5b6000601f19601f8301169050919050565b7f4e487b7100000000000000000000000000000000000000000000000000000000600052604160045260246000fd5b620002d8826200028d565b810181811067ffffffffffffffff82111715620002fa57620002f96200029e565b5b80604052505050565b60006200030f62000274565b90506200031d8282620002cd565b919050565b600067ffffffffffffffff82111562000340576200033f6200029e565b5b602082029050602081019050919050565b600080fd5b600080fd5b600067ffffffffffffffff8211156200037957620003786200029e565b5b62000384826200028d565b9050602081019050919050565b60005b83811015620003b157808201518184015260208101905062000394565b83811115620003c1576000848401525b50505050565b6000620003de620003d8846200035b565b62000303565b905082815260208101848484011115620003fd57620003fc62000356565b5b6200040a84828562000391565b509392505050565b600082601f8301126200042a576200042962000288565b5b81516200043c848260208601620003c7565b91505092915050565b60006200045c620004568462000322565b62000303565b9050808382526020820190506020840283018581111562000482576200048162000351565b5b835b81811015620004d057805167ffffffffffffffff811115620004ab57620004aa62000288565b5b808601620004ba898262000412565b8552602085019450505060208101905062000484565b5050509392505050565b600082601f830112620004f257620004f162000288565b5b81516200050484826020860162000445565b91505092915050565b600073ffffffffffffffffffffffffffffffffffffffff82169050919050565b60006200053a826200050d565b9050919050565b6200054c816200052d565b81146200055857600080fd5b50565b6000815190506200056c8162000541565b92915050565b600080604083850312156200058c576200058b6200027e565b5b600083015167ffffffffffffffff811115620005ad57620005ac62000283565b5b620005bb85828601620004da565b9250506020620005ce858286016200055b565b9150509250929050565b7f4e487b7100000000000000000000000000000000000000000000000000000000600052603260045260246000fd5b600081519050919050565b600082825260208201905092915050565b6000620006308262000607565b6200063c818562000612565b93506200064e81856020860162000391565b62000659816200028d565b840191505092915050565b6000602082019050818103600083015262000680818462000623565b905092915050565b7f4e487b7100000000000000000000000000000000000000000000000000000000600052601160045260246000fd5b6000819050919050565b6000620006ce82620006b7565b91507fffffffffffffffffffffffffffffffffffffffffffffffffffffffffffffffff820362000703576200070262000688565b5b600182019050919050565b7f4e487b7100000000000000000000000000000000000000000000000000000000600052602260045260246000fd5b600060028204905060018216806200075657607f821691505b6020821081036200076c576200076b6200070e565b5b50919050565b610ba880620007826000396000f3fe608060405234801561001057600080fd5b50600436106100885760003560e01c8063548841251161005b5780635488412514610128578063893d20e8146101465780638da5cb5b14610164578063a805f1ca1461018257610088565b80630121b93f1461008d57806309eef43e146100a957806330a56347146100d95780633477ee2e146100f7575b600080fd5b6100a760048036038101906100a29190610656565b6101b2565b005b6100c360048036038101906100be91906106e1565b610448565b6040516100d09190610729565b60405180910390f35b6100e1610468565b6040516100ee9190610753565b60405180910390f35b610111600480360381019061010c9190610656565b610474565b60405161011f929190610807565b60405180910390f35b610130610530565b60405161013d9190610846565b60405180910390f35b61014e610556565b60405161015b9190610846565b60405180910390f35b61016c610580565b6040516101799190610846565b60405180910390f35b61019c60048036038101906101979190610656565b6105a6565b6040516101a99190610753565b60405180910390f35b600160009054906101000a900473ffffffffffffffffffffffffffffffffffffffff1673ffffffffffffffffffffffffffffffffffffffff166380352c263360126040518363ffffffff1660e01b81526004016102109291906108a6565b602060405180830381865afa15801561022d573d6000803e3d6000fd5b505050506040513d601f19601f8201168201806040525081019061025191906108fb565b610290576040517f08c379a000000000000000000000000000000000000000000000000000000000815260040161028790610974565b60405180910390fd5b60008054905081106102d7576040517f08c379a00000000000000000000000000000000000000000000000000000000081526004016102ce906109e0565b60405180910390fd5b600260003373ffffffffffffffffffffffffffffffffffffffff1673ffffffffffffffffffffffffffffffffffffffff16815260200190815260200160002060009054906101000a900460ff1615610364576040517f08c379a000000000000000000000000000000000000000000000000000000000815260040161035b90610a4c565b60405180910390fd5b6000818154811061037857610377610a6c565b5b9060005260206000209060020201600101600081548092919061039a90610aca565b91905055506001600260003373ffffffffffffffffffffffffffffffffffffffff1673ffffffffffffffffffffffffffffffffffffffff16815260200190815260200160002060006101000a81548160ff0219169083151502179055503373ffffffffffffffffffffffffffffffffffffffff167f4d99b957a2bc29a30ebd96a7be8e68fe50a3c701db28a91436490b7d53870ca48260405161043d9190610753565b60405180910390a250565b60026020528060005260406000206000915054906101000a900460ff1681565b60008080549050905090565b6000818154811061048457600080fd5b90600052602060002090600202016000915090508060000180546104a790610b41565b80601f01602080910402602001604051908101604052809291908181526020018280546104d390610b41565b80156105205780601f106104f557610100808354040283529160200191610520565b820191906000526020600020905b81548152906001019060200180831161050357829003601f168201915b5050505050908060010154905082565b600160009054906101000a900473ffffffffffffffffffffffffffffffffffffffff1681565b6000600360009054906101000a900473ffffffffffffffffffffffffffffffffffffffff16905090565b600360009054906101000a900473ffffffffffffffffffffffffffffffffffffffff1681565b6000808054905082106105ee576040517f08c379a00000000000000000000000000000000000000000000000000000000081526004016105e5906109e0565b60405180910390fd5b6000828154811061060257610601610a6c565b5b9060005260206000209060020201600101549050919050565b600080fd5b6000819050919050565b61063381610620565b811461063e57600080fd5b50565b6000813590506106508161062a565b92915050565b60006020828403121561066c5761066b61061b565b5b600061067a84828501610641565b91505092915050565b600073ffffffffffffffffffffffffffffffffffffffff82169050919050565b60006106ae82610683565b9050919050565b6106be816106a3565b81146106c957600080fd5b50565b6000813590506106db816106b5565b92915050565b6000602082840312156106f7576106f661061b565b5b6000610705848285016106cc565b91505092915050565b60008115159050919050565b6107238161070e565b82525050565b600060208201905061073e600083018461071a565b92915050565b61074d81610620565b82525050565b60006020820190506107686000830184610744565b92915050565b600081519050919050565b600082825260208201905092915050565b60005b838110156107a857808201518184015260208101905061078d565b838111156107b7576000848401525b50505050565b6000601f19601f8301169050919050565b60006107d98261076e565b6107e38185610779565b93506107f381856020860161078a565b6107fc816107bd565b840191505092915050565b6000604082019050818103600083015261082181856107ce565b90506108306020830184610744565b9392505050565b610840816106a3565b82525050565b600060208201905061085b6000830184610837565b92915050565b6000819050919050565b6000819050919050565b600061089061088b61088684610861565b61086b565b610620565b9050919050565b6108a081610875565b82525050565b60006040820190506108bb6000830185610837565b6108c86020830184610897565b9392505050565b6108d88161070e565b81146108e357600080fd5b50565b6000815190506108f5816108cf565b92915050565b6000602082840312156109115761091061061b565b5b600061091f848285016108e6565b91505092915050565b7f596f7520617265206e6f7420656c696769626c6520746f20766f746500000000600082015250565b600061095e601c83610779565b915061096982610928565b602082019050919050565b6000602082019050818103600083015261098d81610951565b9050919050565b7f496e76616c69642063616e64696461746520696e646578000000000000000000600082015250565b60006109ca601783610779565b91506109d582610994565b602082019050919050565b600060208201905081810360008301526109f9816109bd565b9050919050565b7f596f75206861766520616c726561647920766f74656400000000000000000000600082015250565b6000610a36601683610779565b9150610a4182610a00565b602082019050919050565b60006020820190508181036000830152610a6581610a29565b9050919050565b7f4e487b7100000000000000000000000000000000000000000000000000000000600052603260045260246000fd5b7f4e487b7100000000000000000000000000000000000000000000000000000000600052601160045260246000fd5b6000610ad582610620565b91507fffffffffffffffffffffffffffffffffffffffffffffffffffffffffffffffff8203610b0757610b06610a9b565b5b600182019050919050565b7f4e487b7100000000000000000000000000000000000000000000000000000000600052602260045260246000fd5b60006002820490506001821680610b5957607f821691505b602082108103610b6c57610b6b610b12565b5b5091905056fea2646970667358221220f9819e7ffb12f58cded6ffad76d97eb678dd5e0f8b62d044a6f1ca5c7b452b6e64736f6c634300080d0033",
  "immutableReferences": {},
  "source": "pragma solidity ^0.8.0;\r\n\r\nimport \"./VotingPermissions.sol\";\r\n\r\ncontract Voting {\r\n    // Struct to represent a candidate\r\n    struct Candidate {\r\n        string name;\r\n        uint256 voteCount;\r\n    }\r\n\r\n    // Array of candidates\r\n    Candidate[] public candidates;\r\n\r\n     // Address of the voting permissions contract\r\n    address public votingPermissionsAddress;\r\n\r\n    // Mapping to track if an address has voted\r\n    mapping(address => bool) public hasVoted;\r\n\r\n    // Event emitted when a voter casts a vote\r\n    event Voted(address indexed _voter, uint256 _candidateIndex);\r\n\r\n    // Event emitted when a new candidate is added\r\n    event CandidateAdded(string _name);\r\n\r\n    // Owner of the contract\r\n    address public owner;\r\n\r\n    // Modifier to restrict access to the owner\r\n    modifier onlyOwner() {\r\n        require(msg.sender == owner, \"Only the owner can call this function\");\r\n        _;\r\n    }\r\n\r\n    // Modifier to check eligibility based on age requirement\r\n    modifier eligibleToVote() {\r\n        require(VotingPermissions(votingPermissionsAddress).meetsAgeRequirement(msg.sender, 18), \"You are not eligible to vote\");\r\n        _;\r\n    }\r\n\r\n    // Constructor to initialize candidates and set owner\r\n    constructor(string[] memory _candidateNames, address _votingPermissionsAddress) {\r\n        owner = msg.sender;\r\n        for (uint256 i = 0; i < _candidateNames.length; i++) {\r\n            candidates.push(Candidate({\r\n                name: _candidateNames[i],\r\n                voteCount: 0\r\n            }));\r\n            emit CandidateAdded(_candidateNames[i]);\r\n        }\r\n        votingPermissionsAddress = _votingPermissionsAddress;\r\n    }\r\n\r\n    // function to get the owner of the contract\r\n\r\n    function getOwner() external view returns (address) {\r\n        return owner;\r\n    }\r\n\r\n\r\n    // new function to vote for candidate\r\n\r\n    function vote(uint256 _candidateIndex) external eligibleToVote  {\r\n    require(_candidateIndex < candidates.length, \"Invalid candidate index\");\r\n\r\n    // Check if the sender has already voted\r\n    require(!hasVoted[msg.sender], \"You have already voted\");\r\n\r\n    // Increment the vote count for the selected candidate\r\n    candidates[_candidateIndex].voteCount++;\r\n    hasVoted[msg.sender] = true;\r\n\r\n    emit Voted(msg.sender, _candidateIndex);\r\n    }\r\n\r\n\r\n   // new function to vote for candidate\r\n\r\n    // Function to get the total votes for a candidate\r\n    function totalVotesFor(uint256 _candidateIndex) external view returns (uint256) {\r\n        require(_candidateIndex < candidates.length, \"Invalid candidate index\");\r\n        return candidates[_candidateIndex].voteCount;\r\n    }\r\n\r\n    // Function to get the total number of candidates\r\n    function getCandidateCount() external view returns (uint256) {\r\n        return candidates.length;\r\n    }\r\n}\r\n",
  "sourcePath": "C:\\Users\\Elena Georgescu\\Documents\\elena_fac\\blockchain_david\\BlockChain\\contracts\\Voting.sol",
  "compiler": {
    "name": "solc",
    "version": "0.8.13+commit.abaa5c0e.Emscripten.clang"
  },
  "schemaVersion": "3.4.16",
  "updatedAt": "2024-05-11T22:09:50.760Z",
  "networkType": "ethereum",
  "devdoc": {
    "kind": "dev",
    "methods": {},
    "version": 1
  },
  "userdoc": {
    "kind": "user",
    "methods": {},
    "version": 1
  }
}