{
  "contractName": "Voting",
  "abi": [
    {
      "inputs": [
        {
          "internalType": "string[]",
          "name": "_candidateNames",
          "type": "string[]"
        }
      ],
      "stateMutability": "nonpayable",
      "type": "constructor"
    },
    {
      "anonymous": false,
      "inputs": [
        {
          "indexed": false,
          "internalType": "string",
          "name": "_name",
          "type": "string"
        }
      ],
      "name": "CandidateAdded",
      "type": "event"
    },
    {
      "anonymous": false,
      "inputs": [
        {
          "indexed": true,
          "internalType": "address",
          "name": "_voter",
          "type": "address"
        },
        {
          "indexed": false,
          "internalType": "uint256",
          "name": "_candidateIndex",
          "type": "uint256"
        }
      ],
      "name": "Voted",
      "type": "event"
    },
    {
      "inputs": [
        {
          "internalType": "uint256",
          "name": "",
          "type": "uint256"
        }
      ],
      "name": "candidates",
      "outputs": [
        {
          "internalType": "string",
          "name": "name",
          "type": "string"
        },
        {
          "internalType": "uint256",
          "name": "voteCount",
          "type": "uint256"
        }
      ],
      "stateMutability": "view",
      "type": "function",
      "constant": true
    },
    {
      "inputs": [
        {
          "internalType": "address",
          "name": "",
          "type": "address"
        }
      ],
      "name": "hasVoted",
      "outputs": [
        {
          "internalType": "bool",
          "name": "",
          "type": "bool"
        }
      ],
      "stateMutability": "view",
      "type": "function",
      "constant": true
    },
    {
      "inputs": [],
      "name": "owner",
      "outputs": [
        {
          "internalType": "address",
          "name": "",
          "type": "address"
        }
      ],
      "stateMutability": "view",
      "type": "function",
      "constant": true
    },
    {
      "inputs": [
        {
          "internalType": "uint256",
          "name": "_candidateIndex",
          "type": "uint256"
        }
      ],
      "name": "vote",
      "outputs": [],
      "stateMutability": "nonpayable",
      "type": "function"
    },
    {
      "inputs": [
        {
          "internalType": "uint256",
          "name": "_candidateIndex",
          "type": "uint256"
        }
      ],
      "name": "totalVotesFor",
      "outputs": [
        {
          "internalType": "uint256",
          "name": "",
          "type": "uint256"
        }
      ],
      "stateMutability": "view",
      "type": "function",
      "constant": true
    },
    {
      "inputs": [],
      "name": "getCandidateCount",
      "outputs": [
        {
          "internalType": "uint256",
          "name": "",
          "type": "uint256"
        }
      ],
      "stateMutability": "view",
      "type": "function",
      "constant": true
    }
  ],
  "bytecode": "0x60806040523480156200001157600080fd5b5060405162000faa38038062000faa8339818101604052810190620000379190620004cb565b33600260006101000a81548173ffffffffffffffffffffffffffffffffffffffff021916908373ffffffffffffffffffffffffffffffffffffffff16021790555060005b81518110156200017a5760006040518060400160405280848481518110620000a857620000a76200051c565b5b602002602001015181526020016000815250908060018154018082558091505060019003906000526020600020906002020160009091909190915060008201518160000190805190602001906200010192919062000182565b506020820151816001015550507ff29562dad1599aea0ebb142466120aab326d5efa8f839df82a9c064bf78e89388282815181106200014557620001446200051c565b5b60200260200101516040516200015c9190620005a8565b60405180910390a18080620001719062000605565b9150506200007b565b5050620006b6565b828054620001909062000681565b90600052602060002090601f016020900481019282620001b4576000855562000200565b82601f10620001cf57805160ff191683800117855562000200565b8280016001018555821562000200579182015b82811115620001ff578251825591602001919060010190620001e2565b5b5090506200020f919062000213565b5090565b5b808211156200022e57600081600090555060010162000214565b5090565b6000604051905090565b600080fd5b600080fd5b600080fd5b6000601f19601f8301169050919050565b7f4e487b7100000000000000000000000000000000000000000000000000000000600052604160045260246000fd5b62000296826200024b565b810181811067ffffffffffffffff82111715620002b857620002b76200025c565b5b80604052505050565b6000620002cd62000232565b9050620002db82826200028b565b919050565b600067ffffffffffffffff821115620002fe57620002fd6200025c565b5b602082029050602081019050919050565b600080fd5b600080fd5b600067ffffffffffffffff8211156200033757620003366200025c565b5b62000342826200024b565b9050602081019050919050565b60005b838110156200036f57808201518184015260208101905062000352565b838111156200037f576000848401525b50505050565b60006200039c620003968462000319565b620002c1565b905082815260208101848484011115620003bb57620003ba62000314565b5b620003c88482856200034f565b509392505050565b600082601f830112620003e857620003e762000246565b5b8151620003fa84826020860162000385565b91505092915050565b60006200041a6200041484620002e0565b620002c1565b9050808382526020820190506020840283018581111562000440576200043f6200030f565b5b835b818110156200048e57805167ffffffffffffffff81111562000469576200046862000246565b5b808601620004788982620003d0565b8552602085019450505060208101905062000442565b5050509392505050565b600082601f830112620004b057620004af62000246565b5b8151620004c284826020860162000403565b91505092915050565b600060208284031215620004e457620004e36200023c565b5b600082015167ffffffffffffffff81111562000505576200050462000241565b5b620005138482850162000498565b91505092915050565b7f4e487b7100000000000000000000000000000000000000000000000000000000600052603260045260246000fd5b600081519050919050565b600082825260208201905092915050565b600062000574826200054b565b62000580818562000556565b9350620005928185602086016200034f565b6200059d816200024b565b840191505092915050565b60006020820190508181036000830152620005c4818462000567565b905092915050565b7f4e487b7100000000000000000000000000000000000000000000000000000000600052601160045260246000fd5b6000819050919050565b60006200061282620005fb565b91507fffffffffffffffffffffffffffffffffffffffffffffffffffffffffffffffff8203620006475762000646620005cc565b5b600182019050919050565b7f4e487b7100000000000000000000000000000000000000000000000000000000600052602260045260246000fd5b600060028204905060018216806200069a57607f821691505b602082108103620006b057620006af62000652565b5b50919050565b6108e480620006c66000396000f3fe608060405234801561001057600080fd5b50600436106100625760003560e01c80630121b93f1461006757806309eef43e1461008357806330a56347146100b35780633477ee2e146100d15780638da5cb5b14610102578063a805f1ca14610120575b600080fd5b610081600480360381019061007c91906104c5565b610150565b005b61009d60048036038101906100989190610550565b610307565b6040516100aa9190610598565b60405180910390f35b6100bb610327565b6040516100c891906105c2565b60405180910390f35b6100eb60048036038101906100e691906104c5565b610333565b6040516100f9929190610676565b60405180910390f35b61010a6103ef565b60405161011791906106b5565b60405180910390f35b61013a600480360381019061013591906104c5565b610415565b60405161014791906105c2565b60405180910390f35b6000805490508110610197576040517f08c379a000000000000000000000000000000000000000000000000000000000815260040161018e9061071c565b60405180910390fd5b600160003373ffffffffffffffffffffffffffffffffffffffff1673ffffffffffffffffffffffffffffffffffffffff16815260200190815260200160002060009054906101000a900460ff1615610224576040517f08c379a000000000000000000000000000000000000000000000000000000000815260040161021b90610788565b60405180910390fd5b60008181548110610238576102376107a8565b5b9060005260206000209060020201600101600081548092919061025a90610806565b919050555060018060003373ffffffffffffffffffffffffffffffffffffffff1673ffffffffffffffffffffffffffffffffffffffff16815260200190815260200160002060006101000a81548160ff0219169083151502179055503373ffffffffffffffffffffffffffffffffffffffff167f4d99b957a2bc29a30ebd96a7be8e68fe50a3c701db28a91436490b7d53870ca4826040516102fc91906105c2565b60405180910390a250565b60016020528060005260406000206000915054906101000a900460ff1681565b60008080549050905090565b6000818154811061034357600080fd5b90600052602060002090600202016000915090508060000180546103669061087d565b80601f01602080910402602001604051908101604052809291908181526020018280546103929061087d565b80156103df5780601f106103b4576101008083540402835291602001916103df565b820191906000526020600020905b8154815290600101906020018083116103c257829003601f168201915b5050505050908060010154905082565b600260009054906101000a900473ffffffffffffffffffffffffffffffffffffffff1681565b60008080549050821061045d576040517f08c379a00000000000000000000000000000000000000000000000000000000081526004016104549061071c565b60405180910390fd5b60008281548110610471576104706107a8565b5b9060005260206000209060020201600101549050919050565b600080fd5b6000819050919050565b6104a28161048f565b81146104ad57600080fd5b50565b6000813590506104bf81610499565b92915050565b6000602082840312156104db576104da61048a565b5b60006104e9848285016104b0565b91505092915050565b600073ffffffffffffffffffffffffffffffffffffffff82169050919050565b600061051d826104f2565b9050919050565b61052d81610512565b811461053857600080fd5b50565b60008135905061054a81610524565b92915050565b6000602082840312156105665761056561048a565b5b60006105748482850161053b565b91505092915050565b60008115159050919050565b6105928161057d565b82525050565b60006020820190506105ad6000830184610589565b92915050565b6105bc8161048f565b82525050565b60006020820190506105d760008301846105b3565b92915050565b600081519050919050565b600082825260208201905092915050565b60005b838110156106175780820151818401526020810190506105fc565b83811115610626576000848401525b50505050565b6000601f19601f8301169050919050565b6000610648826105dd565b61065281856105e8565b93506106628185602086016105f9565b61066b8161062c565b840191505092915050565b60006040820190508181036000830152610690818561063d565b905061069f60208301846105b3565b9392505050565b6106af81610512565b82525050565b60006020820190506106ca60008301846106a6565b92915050565b7f496e76616c69642063616e64696461746520696e646578000000000000000000600082015250565b60006107066017836105e8565b9150610711826106d0565b602082019050919050565b60006020820190508181036000830152610735816106f9565b9050919050565b7f596f75206861766520616c726561647920766f74656400000000000000000000600082015250565b60006107726016836105e8565b915061077d8261073c565b602082019050919050565b600060208201905081810360008301526107a181610765565b9050919050565b7f4e487b7100000000000000000000000000000000000000000000000000000000600052603260045260246000fd5b7f4e487b7100000000000000000000000000000000000000000000000000000000600052601160045260246000fd5b60006108118261048f565b91507fffffffffffffffffffffffffffffffffffffffffffffffffffffffffffffffff8203610843576108426107d7565b5b600182019050919050565b7f4e487b7100000000000000000000000000000000000000000000000000000000600052602260045260246000fd5b6000600282049050600182168061089557607f821691505b6020821081036108a8576108a761084e565b5b5091905056fea264697066735822122080c8df5787639ec799aa182f23ac5fda868b1839ea96f392d67a068f1310b0b864736f6c634300080d0033",
  "immutableReferences": {},
  "source": "pragma solidity ^0.8.0;\r\n\r\ncontract Voting {\r\n    // Struct to represent a candidate\r\n    struct Candidate {\r\n        string name;\r\n        uint256 voteCount;\r\n    }\r\n\r\n    // Array of candidates\r\n    Candidate[] public candidates;\r\n\r\n    // Mapping to track if an address has voted\r\n    mapping(address => bool) public hasVoted;\r\n\r\n    // Event emitted when a voter casts a vote\r\n    event Voted(address indexed _voter, uint256 _candidateIndex);\r\n\r\n    // Event emitted when a new candidate is added\r\n    event CandidateAdded(string _name);\r\n\r\n    // Owner of the contract\r\n    address public owner;\r\n\r\n    // Modifier to restrict access to the owner\r\n    modifier onlyOwner() {\r\n        require(msg.sender == owner, \"Only the owner can call this function\");\r\n        _;\r\n    }\r\n\r\n    // Constructor to initialize candidates and set owner\r\n    constructor(string[] memory _candidateNames) {\r\n        owner = msg.sender;\r\n        for (uint256 i = 0; i < _candidateNames.length; i++) {\r\n            candidates.push(Candidate({\r\n                name: _candidateNames[i],\r\n                voteCount: 0\r\n            }));\r\n            emit CandidateAdded(_candidateNames[i]);\r\n        }\r\n    }\r\n\r\n    // Function to vote for a candidate\r\n    function vote(uint256 _candidateIndex) external {\r\n        require(_candidateIndex < candidates.length, \"Invalid candidate index\");\r\n        require(!hasVoted[msg.sender], \"You have already voted\");\r\n\r\n        candidates[_candidateIndex].voteCount++;\r\n        hasVoted[msg.sender] = true;\r\n        emit Voted(msg.sender, _candidateIndex);\r\n    }\r\n\r\n    // Function to get the total votes for a candidate\r\n    function totalVotesFor(uint256 _candidateIndex) external view returns (uint256) {\r\n        require(_candidateIndex < candidates.length, \"Invalid candidate index\");\r\n        return candidates[_candidateIndex].voteCount;\r\n    }\r\n\r\n    // Function to get the total number of candidates\r\n    function getCandidateCount() external view returns (uint256) {\r\n        return candidates.length;\r\n    }\r\n}\r\n",
  "sourcePath": "C:\\Users\\david\\Desktop\\VotingApp\\voting-dapp\\contracts\\Voting.sol",
  "compiler": {
    "name": "solc",
    "version": "0.8.13+commit.abaa5c0e.Emscripten.clang"
  },
  "schemaVersion": "3.4.16",
  "updatedAt": "2024-05-10T11:48:47.615Z",
  "networkType": "ethereum",
  "devdoc": {
    "kind": "dev",
    "methods": {},
    "version": 1
  },
  "userdoc": {
    "kind": "user",
    "methods": {},
    "version": 1
  }
}