{
  "contractName": "VotingPermissions",
  "abi": [
    {
      "inputs": [],
      "stateMutability": "nonpayable",
      "type": "constructor"
    },
    {
      "anonymous": false,
      "inputs": [
        {
          "indexed": true,
          "internalType": "address",
          "name": "_address",
          "type": "address"
        },
        {
          "indexed": false,
          "internalType": "uint256",
          "name": "_age",
          "type": "uint256"
        }
      ],
      "name": "AgeSet",
      "type": "event"
    },
    {
      "inputs": [
        {
          "internalType": "address",
          "name": "",
          "type": "address"
        }
      ],
      "name": "addressToAge",
      "outputs": [
        {
          "internalType": "uint256",
          "name": "",
          "type": "uint256"
        }
      ],
      "stateMutability": "view",
      "type": "function",
      "constant": true
    },
    {
      "inputs": [
        {
          "internalType": "address",
          "name": "",
          "type": "address"
        }
      ],
      "name": "hasSet",
      "outputs": [
        {
          "internalType": "bool",
          "name": "",
          "type": "bool"
        }
      ],
      "stateMutability": "view",
      "type": "function",
      "constant": true
    },
    {
      "inputs": [],
      "name": "owner",
      "outputs": [
        {
          "internalType": "address",
          "name": "",
          "type": "address"
        }
      ],
      "stateMutability": "view",
      "type": "function",
      "constant": true
    },
    {
      "inputs": [],
      "name": "votingContractAddress",
      "outputs": [
        {
          "internalType": "address",
          "name": "",
          "type": "address"
        }
      ],
      "stateMutability": "view",
      "type": "function",
      "constant": true
    },
    {
      "inputs": [
        {
          "internalType": "address",
          "name": "_votingContractAddress",
          "type": "address"
        }
      ],
      "name": "setVotingContractAddress",
      "outputs": [],
      "stateMutability": "nonpayable",
      "type": "function"
    },
    {
      "inputs": [
        {
          "internalType": "address",
          "name": "_address",
          "type": "address"
        },
        {
          "internalType": "uint256",
          "name": "_age",
          "type": "uint256"
        }
      ],
      "name": "setAge",
      "outputs": [],
      "stateMutability": "nonpayable",
      "type": "function"
    },
    {
      "inputs": [
        {
          "internalType": "address",
          "name": "_address",
          "type": "address"
        },
        {
          "internalType": "uint256",
          "name": "_minAge",
          "type": "uint256"
        }
      ],
      "name": "meetsAgeRequirement",
      "outputs": [
        {
          "internalType": "bool",
          "name": "",
          "type": "bool"
        }
      ],
      "stateMutability": "view",
      "type": "function",
      "constant": true
    }
  ],
  "bytecode": "0x608060405234801561001057600080fd5b50336000806101000a81548173ffffffffffffffffffffffffffffffffffffffff021916908373ffffffffffffffffffffffffffffffffffffffff16021790555061077a806100606000396000f3fe608060405234801561001057600080fd5b506004361061007d5760003560e01c80638da5cb5b1161005b5780638da5cb5b146100fe578063a2427cfa1461011c578063eab94b201461013a578063efa83943146101565761007d565b8063254627001461008257806362b08e70146100b257806380352c26146100ce575b600080fd5b61009c60048036038101906100979190610508565b610186565b6040516100a9919061054e565b60405180910390f35b6100cc60048036038101906100c79190610508565b61019e565b005b6100e860048036038101906100e39190610595565b610273565b6040516100f591906105f0565b60405180910390f35b6101066102c0565b604051610113919061061a565b60405180910390f35b6101246102e4565b604051610131919061061a565b60405180910390f35b610154600480360381019061014f9190610595565b61030a565b005b610170600480360381019061016b9190610508565b610485565b60405161017d91906105f0565b60405180910390f35b60036020528060005260406000206000915090505481565b600073ffffffffffffffffffffffffffffffffffffffff16600160009054906101000a900473ffffffffffffffffffffffffffffffffffffffff1673ffffffffffffffffffffffffffffffffffffffff161461022f576040517f08c379a0000000000000000000000000000000000000000000000000000000008152600401610226906106b8565b60405180910390fd5b80600160006101000a81548173ffffffffffffffffffffffffffffffffffffffff021916908373ffffffffffffffffffffffffffffffffffffffff16021790555050565b600081600360008573ffffffffffffffffffffffffffffffffffffffff1673ffffffffffffffffffffffffffffffffffffffff168152602001908152602001600020541015905092915050565b60008054906101000a900473ffffffffffffffffffffffffffffffffffffffff1681565b600160009054906101000a900473ffffffffffffffffffffffffffffffffffffffff1681565b600260003373ffffffffffffffffffffffffffffffffffffffff1673ffffffffffffffffffffffffffffffffffffffff16815260200190815260200160002060009054906101000a900460ff1615610397576040517f08c379a000000000000000000000000000000000000000000000000000000000815260040161038e90610724565b60405180910390fd5b6001600260003373ffffffffffffffffffffffffffffffffffffffff1673ffffffffffffffffffffffffffffffffffffffff16815260200190815260200160002060006101000a81548160ff02191690831515021790555080600360008473ffffffffffffffffffffffffffffffffffffffff1673ffffffffffffffffffffffffffffffffffffffff168152602001908152602001600020819055508173ffffffffffffffffffffffffffffffffffffffff167fa3fe1cf2c2cf79e57f0d50bc9bf96925309eb1870eace6637b3ee48d72e5e0fa82604051610479919061054e565b60405180910390a25050565b60026020528060005260406000206000915054906101000a900460ff1681565b600080fd5b600073ffffffffffffffffffffffffffffffffffffffff82169050919050565b60006104d5826104aa565b9050919050565b6104e5816104ca565b81146104f057600080fd5b50565b600081359050610502816104dc565b92915050565b60006020828403121561051e5761051d6104a5565b5b600061052c848285016104f3565b91505092915050565b6000819050919050565b61054881610535565b82525050565b6000602082019050610563600083018461053f565b92915050565b61057281610535565b811461057d57600080fd5b50565b60008135905061058f81610569565b92915050565b600080604083850312156105ac576105ab6104a5565b5b60006105ba858286016104f3565b92505060206105cb85828601610580565b9150509250929050565b60008115159050919050565b6105ea816105d5565b82525050565b600060208201905061060560008301846105e1565b92915050565b610614816104ca565b82525050565b600060208201905061062f600083018461060b565b92915050565b600082825260208201905092915050565b7f566f74696e6720636f6e7472616374206164647265737320616c72656164792060008201527f7365740000000000000000000000000000000000000000000000000000000000602082015250565b60006106a2602383610635565b91506106ad82610646565b604082019050919050565b600060208201905081810360008301526106d181610695565b9050919050565b7f596f75206861766520616c72656164792073657420616e206167650000000000600082015250565b600061070e601b83610635565b9150610719826106d8565b602082019050919050565b6000602082019050818103600083015261073d81610701565b905091905056fea2646970667358221220ad8daa805acb28671323cef1e49a157ceb5a947a2a64c93f1eb7e74f64ca92cc64736f6c634300080d0033",
  "immutableReferences": {},
  "source": "pragma solidity ^0.8.0;\r\n\r\nimport \"./Voting.sol\";\r\n\r\ncontract VotingPermissions {\r\n\r\n    // Owner of the contract\r\n    address public owner;\r\n\r\n    // Address of the voting contract\r\n    address public votingContractAddress;\r\n\r\n    // Mapping to track if an address has set an age before\r\n    mapping(address => bool) public hasSet;\r\n\r\n\r\n    // Mapping to store the age of each address\r\n    mapping(address => uint256) public addressToAge;\r\n\r\n    // Event emitted when an address's age is set\r\n    event AgeSet(address indexed _address, uint256 _age);\r\n\r\n    modifier onlyOwnerOfOtherContract() {\r\n        require(Voting(votingContractAddress).getOwner() == msg.sender, \"Caller is not the owner of the specified contract\");\r\n        _;\r\n    }\r\n\r\n\r\n     constructor() {\r\n        owner = msg.sender;\r\n    }\r\n\r\n\r\n    // Function to set the voting contract address\r\n    function setVotingContractAddress(address _votingContractAddress) external {\r\n        require(votingContractAddress == address(0), \"Voting contract address already set\");\r\n        votingContractAddress = _votingContractAddress;\r\n    }\r\n\r\n    // Function to set the age for an address\r\n    function setAge(address _address, uint256 _age) external {\r\n    // Check if the sender has already set an age\r\n    require(!hasSet[msg.sender], \"You have already set an age\");\r\n\r\n    hasSet[msg.sender] = true;\r\n\r\n    addressToAge[_address] = _age;\r\n    emit AgeSet(_address, _age);\r\n    }\r\n\r\n    // Function to check if an address meets the minimum age requirement\r\n    function meetsAgeRequirement(address _address, uint256 _minAge) external view returns (bool) {\r\n        return addressToAge[_address] >= _minAge;\r\n    }\r\n}\r\n",
  "sourcePath": "C:\\Users\\Elena Georgescu\\Documents\\elena_fac\\blockchain_david\\BlockChain\\contracts\\VotingPermissions.sol",
  "compiler": {
    "name": "solc",
    "version": "0.8.13+commit.abaa5c0e.Emscripten.clang"
  },
  "schemaVersion": "3.4.16",
  "updatedAt": "2024-05-11T22:09:50.755Z",
  "networkType": "ethereum",
  "devdoc": {
    "kind": "dev",
    "methods": {},
    "version": 1
  },
  "userdoc": {
    "kind": "user",
    "methods": {},
    "version": 1
  }
}